:020000021000EC
:10FC000001C01BC1112484B7882369F0982F9A7012
:10FC1000923049F081FF02C097EF94BF282E80E018
:10FC2000F7D00C94000085E08093810082E08093FF
:10FC3000C00088E18093C10086E08093C20080E12B
:10FC40008093C4008EE0E4D0209A86E020E33CEF6D
:10FC500091E0309385002093840096BBB09BFECF4B
:10FC6000189AA8954091C00047FD02C0815089F7BD
:10FC700043E0B42EAA24A39451E1752EBDD0813463
:10FC800071F4BAD0C82FCAD082E0C23821F088E01F
:10FC9000C13809F083E0A9D080E1A7D0EFCF82344A
:10FCA00019F484E1C3D0F8CF853411F485E0FACF9C
:10FCB000853581F4A1D0082F9FD0182F87FF07C06A
:10FCC0008BB781608BBF000F111FA8D0E5CF8BB71A
:10FCD0008E7FF8CF863581F48FD08D3459F48CD057
:10FCE000CBB78AD0C170880F8C2B8BBF81E09ED0A0
:10FCF00080E0D1CF83E0FBCF843609F046C07CD0D2
:10FD0000E82EF12CFE2CEE2477D0E82A75D0682E50
:10FD1000E701C12CDD24D39446018FEFC81AD80A1D
:10FD20006BD0F40180832197B9F778D0F5E46F1296
:10FD30000DC0FE01F395EC16FD0609F4ADCF608110
:10FD4000CE01800F911F91D02196F3CFF801B7BE5D
:10FD5000E89507B600FCFDCFFE01E00FF11FDE01C4
:10FD6000B3958D919C910C01A7BEE8951124229624
:10FD7000EC16FD0689F785E0F80187BFE89507B620
:10FD800000FCFDCF77BEE89587CF8437F9F434D0F7
:10FD9000C82FD0E0DC2FCC272FD0C82B2DD0D82EC9
:10FDA0003DD07801F5E4DF120AC0C70156D01DD05E
:10FDB00021978FEFE81AF80A2097B9F76DCFF7016E
:10FDC00087917F0112D02197D1F766CF853739F41B
:10FDD00025D08EE10AD087E908D085E05CCF813557
:10FDE00009F073CF88E014D070CF9091C00095FFD8
:10FDF000FCCF8093C60008958091C00087FFFCCFA0
:10FE00008091C00084FD01C0A8958091C60008952E
:10FE1000E0E6F0E098E1908380830895EDDF8032A2
:10FE200019F088E0F5DFFFCF84E1DFCFCF93C82F53
:10FE3000E3DFC150E9F7CF91F1CFFC010A0167BFC1
:10FE4000E895112407B600FCFDCF667029F0452B1C
:10FE500019F481E187BFE8950895F999FECF92BD25
:10FE600081BDF89A992780B50895262FF999FECF7C
:10FE70001FBA92BD81BD20BD0FB6F894FA9AF99AC7
:10FE80000FBE01960895FF56657273696F6E3D3817
:10FE90002E32004465766963653D61746D65676106
:10FEA000313238347000465F4350553D3136303082
:10FEB000303030304C00424947424F4F543D3100C2
:10FEC0004275696C743A4A756C2031382032303290
:10FED000313A32333A31323A353500554152543D98
:10FEE0003000424155445F524154453D3131353235
:10FEF0003030004C45443D4230004C45445F535443
:0EFF00004152545F464C41534845533D330037
:02FFFE000208F7
:040000031000FC00ED
:00000001FF
