:020000021000EC
:10FC000001C01FC1112484B7882369F0982F9A700E
:10FC1000923049F081FF02C097EF94BF282E80E018
:10FC2000FBD00C94000085E08093810082E08093FB
:10FC3000C00088E18093C10086E08093C20080E12B
:10FC40008093C4008EE0E8D0209A86E020E33CEF69
:10FC500091E0309385002093840096BBB09BFECF4B
:10FC6000189AA8954091C00047FD02C0815089F7BD
:10FC7000FF24F39441E1E42EC3D0813471F4C0D069
:10FC8000C82FD0D0C23811F482E005C0C13811F4B9
:10FC900088E001C083E0ADD0A9C0823411F484E1D2
:10FCA00003C0853419F485E0C5D0A0C0853579F44A
:10FCB000A7D0082FA5D0182F87FF03C08BB781606E
:10FCC00002C08BB78E7F8BBF000F111F8EC0863591
:10FCD00081F496D08D3449F493D0CBB791D0C170D4
:10FCE000880FC82BCBBF81E001C083E0A3D080E0A8
:10FCF000D2CF843609F047C083D0C82FD0E0DC2FA4
:10FD0000CC277ED0C82B7CD0982E6E01A12CBB2492
:10FD1000B39476D0F50181935F01F1E0CF1AD10859
:10FD2000C1F780D085E4981210C05E01B3946801D9
:10FD3000C0E0D1E0CA15DB0509F458C06991C601DD
:10FD400098D0FFEFCF1ADF0AF5CF83E0F80187BF25
:10FD5000E89507B600FCFDCFA0E0B1E0F8018D9179
:10FD60009D910C01F7BEE8951124229732962097B9
:10FD7000B1F785E0F80187BFE89507B600FCFDCF35
:10FD8000E7BEE89533C0843719F53AD0C82FD0E0E4
:10FD9000DC2FCC2735D06E01C82A32D0B82E42D005
:10FDA000E801F5E4BF120BC0CE015BD022D081E0A8
:10FDB000C81AD1082196C114D104B1F717C0FE01A9
:10FDC0008791EF0116D0E1E0CE1AD108C1F70EC03D
:10FDD000853739F427D08EE10CD087E90AD085E049
:10FDE0005ACF813511F488E017D01CD080E101D0C2
:10FDF00043CF9091C00095FFFCCF8093C60008953B
:10FE00008091C00087FFFCCF8091C00084FD01C0BD
:10FE1000A8958091C6000895E0E6F0E098E190830F
:10FE200080830895EDDF803219F088E0F5DFFFCFA1
:10FE300084E1DFCFCF93C82FE3DFC150E9F7CF9143
:10FE4000F1CFFC010A0167BFE895112407B600FC59
:10FE5000FDCF667029F0452B19F481E187BFE89545
:10FE60000895F999FECF92BD81BDF89A992780B582
:10FE70000895262FF999FECF1FBA92BD81BD20BDEE
:10FE80000FB6F894FA9AF99A0FBE01960895FF56A4
:10FE9000657273696F6E3D382E3200446576696312
:10FEA000653D61746D656761313238347000465F5D
:10FEB0004350553D31363030303030304C004249BF
:10FEC00047424F4F543D31004275696C743A4A7550
:10FED0006C20313820323032313A31343A30333AD2
:10FEE000343900554152543D3000424155445F522F
:10FEF0004154453D313135323030004C45443D426E
:10FF000030004C45445F53544152545F464C41537A
:06FF10004845533D33009B
:02FFFE000208F7
:040000031000FC00ED
:00000001FF
