:101D800001C013C1112484B7882371F0982F9A7071
:101D9000923051F081FF02C097EF94BF282E80E06F
:101DA000F1D0EEE0FF2709948EE0ECD0D19A23E049
:101DB000D22ECC24C39435E0932E4FEBE42E4EE08C
:101DC000F42E8F2D806C882EC9D0813471F4C6D04A
:101DD000182FDCD082E0123821F088E0113809F0A9
:101DE00083E0ADD080E1ABD0EFCF823419F484E151
:101DF000D5D0F8CF853411F485E0FACF853541F49C
:101E0000ADD0C82FABD0D82FCC0FDD1FBFD0EACFBD
:101E1000863521F484E0C2D080E0E3CF843609F037
:101E200056C09CD09BD0782E99D0682E00E610E04A
:101E300080E6582E570C58010F5F1F4F8FD0F501C9
:101E400080835012F8CFA2D02097F9F490916000CF
:101E50009093E400809161008093E500E09260003F
:101E60008092610040917C004093E60040917D00AB
:101E70004093E700292F382F2E50310920937C0002
:101E8000832F8F70806C80937D00F5E46F1201C00A
:101E9000FFCFFE01D7BEE89507B600FCFDCF90E06E
:101EA00080E0FC01EC0FFD1FDC01A05ABF4F2D911B
:101EB0003C910901C7BEE895112402967812F1CF32
:101EC000FE0197BEE89507B600FCFDCF8BCF8437A7
:101ED00039F544D043D0B82E41D058D08E01BC0E35
:101EE0000115110541F48091E40029D00F5F1F4FC7
:101EF000B012F6CF77CF0130110519F48091E500CB
:101F0000F4CF0C31110519F48091E600EECF0D31BC
:101F1000110519F48091E700E8CFF8018491E5CF2D
:101F2000853739F433D08EE10AD083E908D08CE0CC
:101F300058CF813509F06ACF88E024D067CF2AE0F6
:101F400030E08095089410F4D99802C0D99A000026
:101F500015D014D086952A95B1F70895A89529E053
:101F600030E0CA99FECF0AD009D008D08894CA9927
:101F700008942A9511F08795F7CF08959EE09A95D9
:101F8000F1F7089598E191BD81BD0895E7DF8032B2
:101F900019F088E0F7DFFFCF84E1D1CFCF93C82FCE
:101FA000DDDFC150E9F7CF91F1CFFC010A0167BF36
:0C1FB000E895112407B600FCFDCF089551
:021FFE000208D7
:0400000300001D805C
:00000001FF
