:101D800001C00DC1112484B7882371F0982F9A7077
:101D9000923051F081FF02C097EF94BF282E80E06F
:101DA000EBD0EEE0FF2709948EE0E6D0D19A93E0E5
:101DB000D92ECC24C39425E0B22E3FEBE32E3EE097
:101DC000F32E8F2D806CA82EC3D0813471F4C0D037
:101DD000182FD6D0123811F482E005C0113811F452
:101DE00088E001C083E0A5D0A1C0823411F484E171
:101DF00003C0853419F485E0CBD098C0853539F41B
:101E0000A7D0C82FA5D0D82FCC0FDD1F8EC0863508
:101E100021F484E0BDD080E0E6CF843609F04FC0E5
:101E200097D096D0982E94D0882E792C00E610E08A
:101E30008FD0F80181938F017A947110F9CFA0D0DF
:101E40002097F1F4309160003093E400209161001C
:101E50002093E500A092610040917C004093E60051
:101E600040917D004093E700832F922F0E9780933F
:101E70007C00892F8F70806C80937D00E0926000E1
:101E8000F5E48F1201C0FFCFFE01D7BEE89507B67B
:101E900000FCFDCFA0E6B0E0FE018D919D910C010C
:101EA000C7BEE89511249A949A9432969110F5CF72
:101EB000FE01B7BEE89507B600FCFDCF37C08437FA
:101EC00039F546D045D0982E43D05AD08E01011511
:101ED000110519F48091E40014C00130110519F4C2
:101EE0008091E5000EC00C31110519F48091E600D7
:101EF00008C00D31110519F48091E70002C0F80106
:101F0000849117D09A940F5F1F4F9110E0CF0EC0AD
:101F1000853739F435D08EE10CD083E90AD08CE0D6
:101F200062CF813511F488E027D02AD080E101D03A
:101F30004BCF2AE030E08095089410F4D99802C085
:101F4000D99A000015D014D086952A95B1F7089536
:101F5000A89529E030E0CA99FECF0AD009D008D070
:101F60008894CA9908942A9511F08795F7CF089517
:101F70009EE09A95F1F7089598E191BD81BD08958D
:101F8000E7DF803219F088E0F7DFFFCF84E1D1CFBF
:101F9000CF93C82FDDDFC150E9F7CF91F1CFFC011E
:101FA0000A0167BFE895112407B600FCFDCF08952C
:021FFE000208D7
:0400000300001D805C
:00000001FF
