:103E000001C0DDC011248FE594E09EBF8DBF84B753
:103E1000882361F0982F9A70923041F081FF02C0A0
:103E200097EF94BF282E80E0B7D0EAC085E08EBD22
:103E300082E08BB988E18AB986E880BD80E189B9E2
:103E40008EE0AAD0B89A84E028E13EEF44E051E049
:103E50003DBD2CBD48BF08B602FEFDCF98B39527E7
:103E600098BBA8955F9902C0815091F7DD24D39447
:103E700035E0C32E41E1B42E88D0813471F485D071
:103E8000182F8ED082E0123821F088E0113809F026
:103E900083E077D080E175D0EFCF823419F484E1EC
:103EA00087D0F8CF853411F485E0FACF853541F419
:103EB0006CD0C82F6AD0D82FCC0FDD1F71D0EACFBD
:103EC000863521F484E074D080E0E3CF843609F0B5
:103ED0003AC05BD05AD0182F58D0082F80E6E82E71
:103EE000F12C90E6A92EA10E47018FEFE81AF80AEF
:103EF0004CD0F4018083AE10F7CF52D0053409F4D2
:103F0000FFCF83E0FE0187BFE89507B600FCFDCF39
:103F100030E020E0FE01E20FF31FD901A05ABF4FAD
:103F20008D919C910C01D7BEE89511242E5F3F4FD7
:103F30001213F0CFFE01C7BEE89507B600FCFDCF17
:103F4000B7BEE895A7CF843771F41FD01ED0F82EE6
:103F50001CD026D08E01F80185918F0112D0FA94E1
:103F6000F110F9CF97CF853731F41AD08EE109D00F
:103F700084E907D08DCF813509F0A0CF88E00CD03F
:103F80009DCF5D9BFECF8CB908955F9BFECF5C9962
:103F900001C0A8958CB1089598E191BD81BD0895A7
:103FA000F4DF803219F088E0F7DFFFCF84E1E9CF5A
:103FB000CF93C82FEADFC150E9F7CF91F1CFFC01D1
:103FC0000A0167BFE895112407B600FCFDCF6670B3
:0E3FD00029F0452B19F481E187BFE89508958B
:023FFE000208B7
:0400000300003E00BB
:00000001FF
