:10FC000001C010C111248FEF90E19EBF8DBF84B75A
:10FC1000882361F0982F9A70923041F081FF02C0E2
:10FC200097EF94BF282E80E0EAD0EAC185E08EBD30
:10FC300082E080939B0088E180939A0086E0809325
:10FC40009D0089E1809399008EE0D9D0BD9A84E02F
:10FC500024E23DEF44E050E23DBD2CBD46BF06B678
:10FC600002FEFDCF98B3952798BBA89590919B0075
:10FC700097FD02C0815081F743E0B42EAA24A394DB
:10FC800055E0752E61E1662EAED0813479F4ABD0AB
:10FC9000C82FB9D0C23811F482E004C088E0C1385E
:10FCA00009F083E099D080E197D0EECF823419F447
:10FCB00084E1B1D0F8CF853411F485E0FACF8535F1
:10FCC00041F491D0082F8FD0182F000F111F9BD017
:10FCD000EACF863521F484E09ED080E0E3CF8436FD
:10FCE00009F04BC080D0E82EF12CFE2CEE247BD006
:10FCF000E82A79D0582EE701C12CDD24D39446019F
:10FD00008FEFC81AD80A6FD0F40180832197B9F712
:10FD10007AD0F5E45F120DC0FE01F395EC16FD06F6
:10FD200009F4C1CF6081CE01800F911F96D021963A
:10FD3000F3CFF801B0926800E8958091680080FDEB
:10FD4000FCCFFE01E00FF11FDE01B3958D919C9178
:10FD50000C01A0926800E89511242296EC16FD068D
:10FD600081F7F80170926800E8958091680080FD45
:10FD7000FCCF60926800E89596CF8437F9F433D0D1
:10FD8000C82FD0E0DC2FCC272ED0C82B2CD0D82EDB
:10FD90003AD07801F5E4DF120AC0C70156D01CD072
:10FDA00021978FEFE81AF80A2097B9F77CCFF7016F
:10FDB00085917F0111D02197D1F775CF853731F427
:10FDC00022D08EE109D086E907D066CF813509F0CF
:10FDD0007ECF88E014D07BCF90919B0095FFFCCF25
:10FDE00080939C00089580919B0087FFFCCF8091B9
:10FDF0009B0084FD01C0A89580919C00089598E126
:10FE000091BD81BD0895EFDF803219F088E0F7DF02
:10FE1000FFCF84E1E1CFCF93C82FE5DFC150E9F7F1
:10FE2000CF91F1CFFC010A0160936800E89511249D
:10FE30008091680080FDFCCF667031F0452B21F485
:10FE400081E180936800E8950895E199FECF9FBB1A
:10FE50008EBBE09A99278DB30895262FE199FECFA6
:10FE60009FBB8EBB2DBB0FB6F894E29AE19A0FBEF2
:10FE700001960895FF56657273696F6E3D382E3294
:10FE8000004465766963653D61746D65676136340C
:10FE900000465F4350553D31323030303030304CC9
:10FEA00000424947424F4F543D31004275696C74DE
:10FEB0003A4A756C20313820323032313A32333A96
:10FEC00031393A343800554152543D3100424155A0
:10FED000445F524154453D3537363030004C45443F
:10FEE0003D4235004C45445F53544152545F464CAB
:08FEF00041534845533D320027
:02FFFE000208F7
:040000030000FC00FD
:00000001FF
