:020000021000EC
:10FC000001C02AC111248FEF90E19EBF8DBF84B740
:10FC1000882369F0982F9A70923049F081FF02C0D2
:10FC200097EF94BF282E80E004D10C94000085E06B
:10FC30008EBD82E080939B0088E180939A0086E0ED
:10FC400080939D0085E1809399008EE0F2D0BD9A6B
:10FC500084E02CE33BEF44E050E23DBD2CBD46BFC9
:10FC600006B602FEFDCF98B3952798BBA895909154
:10FC70009B0097FD02C0815081F7FF24F39455E06B
:10FC8000E52E61E1D62EC9D0813469F4C6D0C82FE3
:10FC9000D4D0C23809F4B0C0C13811F488E001C032
:10FCA00083E0B4D0B0C0823411F484E103C0853461
:10FCB00019F485E0CAD0A7C0853579F4AED0082FF5
:10FCC000ACD0182F87FF03C08BB7816002C08BB701
:10FCD0008E7F8BBF000F111F95C0863581F49DD09C
:10FCE0008D3449F49AD0CBB798D0C170880FC82B07
:10FCF000CBBF81E001C083E0A8D080E0D2CF8436C2
:10FD000009F04EC08AD0C82FD0E0DC2FCC2785D098
:10FD1000C82B83D0C82E5E01812C992493947DD06A
:10FD2000F40181934F01F1E0AF1AB108C1F785D01A
:10FD300085E4C81212C0D3954801A12CBB24B3940A
:10FD4000AC16BD0609F45FC0F50161915F01C40105
:10FD50009ED0FFEF8F1A9F0AF3CF83E0F8018093C4
:10FD60006800E8958091680080FDFCCFA0E0B1E0DC
:10FD7000F8018D919D910C01F0926800E895112495
:10FD8000229732962097A9F7F801E0926800E8954B
:10FD90008091680080FDFCCFD0926800E89533C068
:10FDA000843719F53AD0C82FD0E0DC2FCC2735D0D6
:10FDB0005E01A82A32D0982E40D0E801F5E49F12C7
:10FDC0000BC0CE015CD022D081E0A81AB1082196E8
:10FDD000A114B104B1F717C0FE018791EF0116D04D
:10FDE000E1E0AE1AB108C1F70EC0853739F425D06D
:10FDF0008EE10CD087E90AD082E053CF813511F42F
:10FE000088E017D01AD080E101D03DCF90919B00BF
:10FE100095FFFCCF80939C00089580919B0087FF05
:10FE2000FCCF80919B0084FD01C0A89580919C002F
:10FE3000089598E191BD81BD0895EFDF803219F0FA
:10FE400088E0F7DFFFCF84E1E1CFCF93C82FE5DF74
:10FE5000C150E9F7CF91F1CFFC010A01609368002E
:10FE6000E89511248091680080FDFCCF667031F028
:10FE7000452B21F481E180936800E8950895E1998C
:10FE8000FECF9FBB8EBBE09A99278DB30895262F96
:10FE9000E199FECF9FBB8EBB2DBB0FB6F894E29AC3
:10FEA000E19A0FBE01960895FF56657273696F6EF1
:10FEB0003D382E32004465766963653D61746D6539
:10FEC000676131323800465F4350553D3230303043
:10FED000303030304C00424947424F4F543D3100A2
:10FEE0004275696C743A4A756C2031382032303270
:10FEF000313A31343A31303A343100554152543D7F
:10FF00003100424155445F524154453D3131353213
:10FF10003030004C45443D4235004C45445F53541D
:0EFF20004152545F464C41534845533D320018
:02FFFE000208F7
:040000031000FC00ED
:00000001FF
