:103E000001C0BEC011248FEF94E09EBF8DBF84B768
:103E1000882361F0982F9A70923041F081FF02C0A0
:103E200097EF94BF282E80E098D0EAC082E08BB94B
:103E300088E18AB986E080BD89E189B98EE08DD0BC
:103E400093E0E92EDD24D39425E0C22E31E1B32E98
:103E50007DD0813471F47AD0182F83D0123811F4C8
:103E600082E005C0113811F488E001C083E06AD017
:103E700066C0823411F484E103C0853419F485E00E
:103E800078D05DC0853539F461D0C82F5FD0D82F88
:103E9000CC0FDD1F53C0863521F484E06AD080E06A
:103EA000E6CF843609F02DC051D050D0F82E4ED038
:103EB000A82E00E011E04AD0F80181938F01FE1294
:103EC000FACF4FD0F5E4AF1201C0FFCFFE01E7BE3D
:103ED000E89507B600FCFDCFA0E0B1E0FE018D91B2
:103EE0009D910C01D7BEE89511243296FA12F7CFB6
:103EF000FE01C7BEE89507B600FCFDCFB7BEE8954A
:103F00001EC0843771F422D021D0F82E1FD029D0C2
:103F10008E01F80185918F0115D0FA94F110F9CF37
:103F20000EC0853739F41DD08EE10CD084E90AD05B
:103F300084E09DCF813511F488E00FD012D080E16C
:103F400001D086CF5D9BFECF8CB908955F9BFECFDD
:103F50005C9901C0A8958CB1089598E191BD81BD8F
:103F60000895F4DF803219F088E0F7DFFFCF84E1B5
:103F7000E9CFCF93C82FEADFC150E9F7CF91F1CF56
:103F8000FC010A0167BFE895112407B600FCFDCFCC
:103F9000667029F0452B19F481E187BFE8950895F3
:023FFE000208B7
:0400000300003E00BB
:00000001FF
