:103E000001C0D6C011248FE594E09EBF8DBF84B75A
:103E1000882361F0982F9A70923041F081FF02C0A0
:103E200097EF94BF282E80E0B0D0EAC085E08EBD29
:103E300082E08BB988E18AB986E880BD80E189B9E2
:103E40008EE0A3D0B89A84E020E33CEF44E051E058
:103E50003DBD2CBD48BF08B602FEFDCF98B39527E7
:103E600098BBA8955F9902C0815091F7EE24E39426
:103E700025E0D22E31E1C32E81D08134B1F47ED041
:103E8000182F87D0123811F482E00DC0113851F488
:103E900088E009C0853709F065C07BD08EE16AD023
:103EA00084E968D083E066D062C0823411F484E192
:103EB00003C0853419F485E074D059C0853539F4D0
:103EC0005DD0C82F5BD0D82FCC0FDD1F4FC08635FB
:103ED00021F484E066D080E0E6CF843609F031C07A
:103EE0004DD04CD0182F4AD0F82E012F80E6A82EA6
:103EF000B12C44D0F50181935F010150D1F749D035
:103F0000F5E4FF1201C0FFCF83E0FE0187BFE89513
:103F100007B600FCFDCFA0E6B0E0FE018D919D91BB
:103F20000C01E7BEE8951124125032961111F6CF1C
:103F3000FE01D7BEE89507B600FCFDCFC7BEE895E9
:103F400016C0843709F0A6CF19D018D0F82E16D095
:103F500020D08E01F80185918F010CD0FA94F110D8
:103F6000F9CF05C0813511F488E00FD012D080E17F
:103F700001D082CF5D9BFECF8CB908955F9BFECFB1
:103F80005C9901C0A8958CB1089598E191BD81BD5F
:103F90000895F4DF803219F088E0F7DFFFCF84E185
:103FA000E9CFCF93C82FEADFC150E9F7CF91F1CF26
:103FB000FC010A0167BFE895112407B600FCFDCF9C
:103FC000667029F0452B19F481E187BFE8950895C3
:023FFE000208B7
:0400000300003E00BB
:00000001FF
