:10FC000001C008C111248FEF90E19EBF8DBF84B762
:10FC1000882361F0982F9A70923041F081FF02C0E2
:10FC200097EF94BF282E80E0E2D0EAC185E08EBD38
:10FC300082E08BB988E18AB986E08093950089E1FA
:10FC400089B98EE0D4D0BD9A84E024E23DEF44E04F
:10FC500050E23DBD2CBD46BF06B602FEFDCF98B3B7
:10FC6000952798BBA8955F9902C0815091F7FF2412
:10FC7000F39455E0E52E61E1D62EB2D0813469F4DB
:10FC8000AFD0C82FB8D0C23809F49CC0C13811F425
:10FC900088E001C083E0A0D09CC0823411F484E1EC
:10FCA00003C0853419F485E0AED093C0853539F4AE
:10FCB00097D0082F95D0182F000F111F89C08635B7
:10FCC00021F484E0A0D080E0E6CF843609F04EC075
:10FCD00087D0C82FD0E0DC2FCC2782D0C82B80D093
:10FCE000C82E5E01812C992493947AD0F4018193DB
:10FCF0004F01F1E0AF1AB108C1F77DD085E4C81219
:10FD000012C0D3954801A12CBB24B394AC16BD06F8
:10FD100009F45FC0F50161915F01C40196D0FFEF66
:10FD20008F1A9F0AF3CF83E0F80180936800E8956B
:10FD30008091680080FDFCCFA0E0B1E0F8018D91DA
:10FD40009D910C01F0926800E8951124229732965B
:10FD50002097A9F7F801E0926800E8958091680083
:10FD600080FDFCCFD0926800E89533C0843719F548
:10FD700037D0C82FD0E0DC2FCC2732D05E01A82AA4
:10FD80002FD0982E38D0E801F5E49F120BC0CE0199
:10FD900054D022D081E0A81AB1082196A114B10450
:10FDA000B1F717C0FE018591EF0116D0E1E0AE1A60
:10FDB000B108C1F70EC0853739F41DD08EE10CD0E3
:10FDC00086E90AD082E067CF813511F488E00FD050
:10FDD00012D080E101D051CF5D9BFECF8CB9089548
:10FDE0005F9BFECF5C9901C0A8958CB1089598E106
:10FDF00091BD81BD0895F4DF803219F088E0F7DF0E
:10FE0000FFCF84E1E9CFCF93C82FEADFC150E9F7F4
:10FE1000CF91F1CFFC010A0160936800E8951124AD
:10FE20008091680080FDFCCF667031F0452B21F495
:10FE300081E180936800E8950895E199FECF9FBB2A
:10FE40008EBBE09A99278DB30895262FE199FECFB6
:10FE50009FBB8EBB2DBB0FB6F894E29AE19A0FBE02
:10FE600001960895FF56657273696F6E3D382E32A4
:10FE7000004465766963653D61746D65676136341C
:10FE800000465F4350553D31323030303030304CD9
:10FE900000424947424F4F543D31004275696C74EE
:10FEA0003A4A756C20313820323032313A31343AA6
:10FEB00031303A333900554152543D3000424155BA
:10FEC000445F524154453D3537363030004C45444F
:10FED0003D4235004C45445F53544152545F464CBB
:08FEE00041534845533D320037
:02FFFE000208F7
:040000030000FC00FD
:00000001FF
