:103D800001C022C1112485B7882371F0982F9A7041
:103D9000923051F081FF02C097EF95BF282E80E04E
:103DA00000D1E4E3FF27099485E08093710082E06D
:103DB0008093790088E18093780086E08093770093
:103DC00083E1809374008EE0ECD0409A86E02EEC84
:103DD0003DEF90E830936F0020936E0099BF09B6D5
:103DE00007FEFDCF389AA8954091790047FD02C0A3
:103DF000815081F780EC9EE1E92EBB24B39425E04D
:103E0000A22E33E0732E6C01C0D0813471F4BDD08A
:103E1000182FCBD082E0123821F088E0113809F059
:103E200083E0ACD080E1AAD0EFCF823419F484E1F2
:103E3000C4D0F8CF853411F485E0FACF853541F44C
:103E4000A4D0C82FA2D0D82FCC0FDD1FAED0EACF80
:103E5000863521F484E0B1D080E0E3CF843609F0E8
:103E600055C093D092D0F82E90D0682E00E011E08B
:103E700048010F5F1F4F89D0F4018083F012F8CF03
:103E800094D0209781F48091020180934401809125
:103E9000030180934501C0920201E0920301F5E421
:103EA0006F1215C0FFCFC036D105C9F780910A0146
:103EB0008093460180910B018093470180914401DA
:103EC00080930A018091450180930B01E8CF8C2FEC
:103ED0008F77FE0131F477BEE89507B600FCFDCF81
:103EE000FE0120E031E0D9012E5F3F4F8D919C9182
:103EF0000C01B7BEE89511243296F212F4CFFE0100
:103F0000A7BEE89507B600FCFDCF8CCF843739F506
:103F10003CD03BD0F82E39D048D08E01FC0E023078
:103F2000110541F48091440129D00F5F1F4FF01219
:103F3000F6CF78CF0330110519F480914501F4CF05
:103F40000A36110519F480914601EECF0B361105A2
:103F500019F480914701E8CFF8018491E5CF8537C6
:103F600039F423D08EE10AD084E908D082E159CF18
:103F7000813509F06BCF88E014D068CF909179003B
:103F800095FFFCCF8093730008958091790087FF9F
:103F9000FCCF8091790084FD01C0A89580917300C9
:103FA000089598ED9FBD80BF0895EFDF803219F02E
:103FB00088E0F7DFFFCF84E1E1CFCF93C82FE5DFC3
:103FC000C150E9F7CF91F1CFFC010A0167BFE89535
:0A3FD000112407B600FCFDCF089590
:023FFE000208B7
:0400000300003D803C
:00000001FF
