:101D800001C022C1112484B7882371F0982F9A7062
:101D9000923051F081FF02C097EF94BF282E80E06F
:101DA000FED0E1E1FF27099485E0809381008EE079
:101DB000F6D0259A569A86E024E23DEF91E03093E2
:101DC00085002093840096BBB09BFECF1D9AA895FA
:101DD0008150A9F793E0D92ECC24C39425E0922E0C
:101DE0003FEBE32E3EE0F32E8F2D806C882EC3D088
:101DF000813471F4C0D0182FD8D082E0123821F08D
:101E000088E0113809F083E0A7D080E1A5D0EFCFBA
:101E1000823419F484E1D1D0F8CF853411F485E00F
:101E2000FACF853541F4A7D0C82FA5D0D82FCC0F35
:101E3000DD1FBBD0EACF863521F484E0BED080E040
:101E4000E3CF843609F050C096D095D0782E93D049
:101E5000682E00E011E058010F5F1F4F8CD0F50194
:101E600080837012F8CFA1D02097F9F490910001EF
:101E7000909384018091010180938501E09200019B
:101E800080920101409122014093860140912301FB
:101E900040938701292F382F2151310920932201A6
:101EA000832F8F70806C80932301F5E46F1201C043
:101EB000FFCFFE01D7BEE89507B600FCFDCFFE01BF
:101EC00080E091E0DC0102962D913C910901C7BEB2
:101ED000E895112432967812F5CFFE0197BEE89569
:101EE00007B600FCFDCF91CF843739F544D043D0FD
:101EF000B82E41D05AD08E01BC0E0115110541F407
:101F00008091840129D00F5F1F4FB012F6CF7DCF93
:101F10000130110519F480918501F4CF02321105C9
:101F200019F480918601EECF0332110519F48091E6
:101F30008701E8CFF8018491E5CF853739F435D0B2
:101F40008EE10AD083E908D081E15ECF813509F0C6
:101F500070CF88E024D06DCF2AE030E080950894DF
:101F600010F45E9802C05E9A000015D014D08695D9
:101F70002A95B1F70895A89529E030E04F99FECF52
:101F80000AD009D008D088944F9908942A9511F066
:101F90008795F7CF089594E69A95F1F70895E0E6CE
:101FA000F0E098E1908380830895E5DF803219F0B6
:101FB00088E0F5DFFFCF84E1CFCFCF93C82FDBDF01
:101FC000C150E9F7CF91F1CFFC010A0167BFE89555
:0A1FD000112407B600FCFDCF0895B0
:021FFE000208D7
:0400000300001D805C
:00000001FF
