:100D800001C027C1112484B7882371F0982F9A706D
:100D9000923051F081FF02C097EF94BF282E80E07F
:100DA00004D1EEE0FF27099485E08EBD82E08093B8
:100DB000860088E18093850086E08093840080E14E
:100DC000809381008EE0F1D0BA9A86E020E33CEF78
:100DD00091E03DBD2CBD9EB9709BFECFB29AA89507
:100DE0004091860047FD02C0815099F7BB24B3941F
:100DF00095E0A92E23E0722E3FEBC32E36E0D32ED2
:100E00008D2D806C682EC5D0813471F4C2D0182F1E
:100E1000D1D082E0123821F088E0113809F083E067
:100E2000B1D080E1AFD0EFCF823419F484E1CAD0E1
:100E3000F8CF853411F485E0FACF853541F4A9D097
:100E4000C82FA7D0D82FCC0FDD1FB4D0EACF86355E
:100E500021F484E0B7D080E0E3CF843609F05AC0B3
:100E600098D097D0582E95D0482E00E011E0480138
:100E70000F5F1F4F8ED0F40180835012F8CF9AD0AD
:100E8000209781F4809100018093240180910101D9
:100E900080932501C092000160920101F5E44F1298
:100EA0001AC0FFCFC031D105C9F7E0902401F090FE
:100EB000250180910C018093260180910D01809382
:100EC0002701C7010E9780930C01892F8F70806CCA
:100ED00080930D01E3CF8C2F8F73FE0131F477BE29
:100EE000E89507B600FCFDCFFE0120E031E0D90116
:100EF0002E5F3F4F8D919C910C01B7BEE895112458
:100F000032965212F4CFFE01A7BEE89507B600FC58
:100F1000FDCF87CF843739F53CD03BD0982E39D0E0
:100F200049D08E019C0E0115110541F480912401D8
:100F300029D00F5F1F4F9012F6CF73CF01301105EC
:100F400019F480912501F4CF0C31110519F4809129
:100F50002601EECF0D31110519F480912701E8CF5C
:100F6000F8018491E5CF853739F424D08EE10AD099
:100F700082E908D085E154CF813509F066CF88E059
:100F800014D063CF9091860095FFFCCF80938000B2
:100F900008958091860087FFFCCF8091860084FDB4
:100FA00001C0A89580918000089598ED90937100FC
:100FB00081BD0895EEDF803219F088E0F6DFFFCFC3
:100FC00084E1E0CFCF93C82FE4DFC150E9F7CF91A0
:100FD000F1CFFC010A0167BFE895112407B600FCB8
:040FE000FDCF0895A4
:020FFE000208E7
:0400000300000D806C
:00000001FF
