:101D800001C01EC1112484B7882371F0982F9A7066
:101D9000923051F081FF02C097EF94BF282E80E06F
:101DA000FAD0E0E1FF27099485E08093810080E884
:101DB0008093C8008CE08093CD0088E88093CC00AD
:101DC0008FE08093C8001092D2008EE0E4D00B9A8E
:101DD00086E024E23DEF91E030938500209384007B
:101DE00096BBB09BFECF039AA8954091C90040FDD9
:101DF00002C0815089F7CC24C39425E0B22E3FEB7A
:101E0000E32E3EE0F32E8F2D806CA82EB8D08134C7
:101E100071F4B5D0182FC5D0123811F482E005C086
:101E2000113811F488E001C083E0A2D09EC0823452
:101E300011F484E103C0853419F485E0BAD095C06B
:101E4000853539F49CD0C82F9AD0D82FCC0FDD1F00
:101E50008BC0863521F484E0ACD080E0E6CF8436B8
:101E600009F04CC08CD08BD0182F89D0082F812C32
:101E70009924939484D0F40181934F011E13FACFD7
:101E800090D02097F1F4309100013093040220911A
:101E9000010120930502A09201014091200140938D
:101EA00006024091210140930702832F922F409711
:101EB00080932001892F8F70806C80932101E092A4
:101EC0000001053409F4FFCF83E0FE0187BFE895E8
:101ED00007B600FCFDCFA0E0B1E0FE018D919D9121
:101EE0000C01C7BEE895112432961A13F7CFFE01F4
:101EF000B7BEE89507B600FCFDCF37C0843739F58B
:101F00003ED03DD0D82E3BD04CD08E0101151105CE
:101F100019F48091040214C00130110519F4809164
:101F200005020EC00032110519F48091060208C0A6
:101F30000132110519F48091070202C0F801849161
:101F400017D0DA940F5F1F4FD110E0CF0EC0853746
:101F500039F427D08EE10CD083E90AD087E865CF29
:101F6000813511F488E017D01CD080E101D04ECF2C
:101F70009091C90091FFFCCF8093D2000895809189
:101F8000C90080FFFCCF8091C90084FD01C0A895E5
:101F90008091D2000895E0E6F0E098E1908380839C
:101FA0000895EDDF803219F088E0F5DFFFCF84E19E
:101FB000DFCFCF93C82FE3DFC150E9F7CF91F1CF47
:101FC000FC010A0167BFE895112407B600FCFDCFAC
:021FD000089572
:021FFE000208D7
:0400000300001D805C
:00000001FF
