:103D800001C018C1112485B7882371F0982F9A704B
:103D9000923051F081FF02C097EF95BF282E80E04E
:103DA000F6D0E4E3FF27099485E08093710082E078
:103DB00086BD88E185BD86E084BD8FE081BD8EE053
:103DC000E6D0409A86E02CE73CEF90E830936F0015
:103DD00020936E0099BF09B607FEFDCF389AA895CB
:103DE00006B407FC02C0815089F780EC9EE1E92E01
:103DF000BB24B39425E0A22E33E0732E6C01BED019
:103E0000813471F4BBD0182FC6D082E0123821F073
:103E100088E0113809F083E0ACD080E1AAD0EFCF80
:103E2000823419F484E1BFD0F8CF853411F485E0F1
:103E3000FACF853541F4A2D0C82FA0D0D82FCC0F0F
:103E4000DD1FA9D0EACF863521F484E0ACD080E034
:103E5000E3CF843609F055C091D090D0F82E8ED0A3
:103E6000682E00E011E048010F5F1F4F87D0F4017A
:103E70008083F012F8CF8FD0209781F480910201D7
:103E8000809344018091030180934501C092020117
:103E9000E0920301F5E46F1215C0FFCFC036D105E3
:103EA000C9F780910A018093460180910B018093AC
:103EB00047018091440180930A01809145018093DC
:103EC0000B01E8CF8C2F8F77FE0131F477BEE89598
:103ED00007B600FCFDCFFE0120E031E0D9012E5FE6
:103EE0003F4F8D919C910C01B7BEE89511243296FD
:103EF000F212F4CFFE01A7BEE89507B600FCFDCF95
:103F00008CCF843739F53AD039D0F82E37D043D01A
:103F10008E01FC0E0230110541F48091440129D03C
:103F20000F5F1F4FF012F6CF78CF0330110519F451
:103F300080914501F4CF0A36110519F480914601AC
:103F4000EECF0B36110519F480914701E8CFF80147
:103F50008491E5CF853739F41ED08EE10AD084E90B
:103F600008D082E159CF813509F06BCF88E00FD0BE
:103F700068CF06B405FEFDCF80BD089506B407FEE8
:103F8000FDCF06B404FC01C0A89580B5089598ED56
:103F90009FBD80BF0895F2DF803219F088E0F7DF1F
:103FA000FFCF84E1E6CFCF93C82FE8DFC150E9F718
:103FB000CF91F1CFFC010A0167BFE895112407B644
:063FC00000FCFDCF089596
:023FFE000208B7
:0400000300003D803C
:00000001FF
