:100DC00001C00DC1112484B7882371F0982F9A7047
:100DD000923051F081FF02C097EF94BF282E80E03F
:100DE000EBD0E6E0FF2709948EE0E6D0B89A93E0D6
:100DF000D92ECC24C39425E0B22E3FEDE32E36E06D
:100E0000F32E8F2D806CA82EC3D0813471F4C0D006
:100E1000182FD6D0123811F482E005C0113811F421
:100E200088E001C083E0A5D0A1C0823411F484E140
:100E300003C0853419F485E0CBD098C0853539F4EA
:100E4000A7D0C82FA5D0D82FCC0FDD1F8EC08635D8
:100E500021F484E0BDD080E0E6CF843609F04FC0B5
:100E600097D096D0982E94D0882E792C00E610E05A
:100E70008FD0F80181938F017A947110F9CFA0D0AF
:100E80002097F1F4309160003093E40020916100EC
:100E90002093E500A092610040916C004093E60031
:100EA00040916D004093E700832F922F0697809327
:100EB0006C00892F8F70806C80936D00E0926000D1
:100EC000F5E48F1201C0FFCFFE01D7BEE89507B64B
:100ED00000FCFDCFA0E6B0E0FE018D919D910C01DC
:100EE000C7BEE89511249A949A9432969110F5CF42
:100EF000FE01B7BEE89507B600FCFDCF37C08437CA
:100F000039F546D045D0982E43D05AD08E010115E0
:100F1000110519F48091E40014C00130110519F491
:100F20008091E5000EC00C30110519F48091E600A7
:100F300008C00D30110519F48091E70002C0F801D6
:100F4000849117D09A940F5F1F4F9110E0CF0EC07D
:100F5000853739F435D08EE10CD082E90AD086E0AD
:100F600062CF813511F488E027D02AD080E101D00A
:100F70004BCF2AE030E08095089410F4C09802C06E
:100F8000C09A000015D014D086952A95B1F708951F
:100F9000A89529E030E0B199FECF0AD009D008D059
:100FA0008894B19908942A9511F08795F7CF089500
:100FB00094E69A95F1F7089598E191BD81BD089561
:100FC000E7DF803219F088E0F7DFFFCF84E1D1CF8F
:100FD000CF93C82FDDDFC150E9F7CF91F1CFFC01EE
:100FE0000A0167BFE895112407B600FCFDCF0895FC
:020FFE000208E7
:0400000300000DC02C
:00000001FF
