:101D800001C023C1112484B7882371F0982F9A7061
:101D9000923051F081FF02C097EF94BF282E80E06F
:101DA000FFD0E0E1FF27099485E08093810080E87F
:101DB0008093C8008BE08093CD0088E88093CC00AE
:101DC0008FE08093C8001092D2008EE0E9D00B9A89
:101DD00086E02DE53DEF91E030938500209384006F
:101DE00096BBB09BFECF039AA8954091C90040FDD9
:101DF00002C0815089F793E0D92ECC24C39425E00A
:101E0000922E3FEBE32E3EE0F32E8F2D806C882E3A
:101E1000BBD0813471F4B8D0182FC8D082E012380A
:101E200021F088E0113809F083E0A7D080E1A5D047
:101E3000EFCF823419F484E1C1D0F8CF853411F4A6
:101E400085E0FACF853541F49FD0C82F9DD0D82F9B
:101E5000CC0FDD1FABD0EACF863521F484E0AED0C5
:101E600080E0E3CF843609F050C08ED08DD0782E3C
:101E70008BD0682E00E011E058010F5F1F4F84D017
:101E8000F50180837012F8CF91D02097F9F49091EA
:101E90000001909304028091010180930502E09279
:101EA000000180920101409120014093060240917F
:101EB000210140930702292F382F20513109209307
:101EC0002001832F8F70806C80932101F5E46F12C5
:101ED00001C0FFCFFE01D7BEE89507B600FCFDCFDD
:101EE000FE0180E091E0DC0102962D913C91090118
:101EF000C7BEE895112432967812F5CFFE0197BE41
:101F0000E89507B600FCFDCF91CF843739F53CD07A
:101F10003BD0B82E39D04AD08E01BC0E0115110528
:101F200041F48091040229D00F5F1F4FB012F6CF09
:101F30007DCF0130110519F480910502F4CF0032F4
:101F4000110519F480910602EECF0132110519F442
:101F500080910702E8CFF8018491E5CF853739F405
:101F600025D08EE10AD083E908D087E85ECF81359D
:101F700009F070CF88E014D06DCF9091C90091FF27
:101F8000FCCF8093D20008958091C90080FFFCCFE0
:101F90008091C90084FD01C0A8958091D200089568
:101FA000E0E6F0E098E1908380830895EDDF8032F1
:101FB00019F088E0F5DFFFCF84E1DFCFCF93C82FA2
:101FC000E3DFC150E9F7CF91F1CFFC010A0167BF10
:0C1FD000E895112407B600FCFDCF089531
:021FFE000208D7
:0400000300001D805C
:00000001FF
